S01A00004C454444696D6D696E675573696E6750574D2E7372656376
S11300000C9474000C9486000C9486000C94860066
S11300100C9486000C9486000C9486000C94860044
S11300200C9486000C9486000C9486000C94860034
S11300300C9486000C9486000C9486000C94860024
S11300400C9486000C9486000C9486000C94860014
S11300500C9486000C9486000C9486000C94860004
S11300600C9486000C9486000C9486000C948600F4
S11300700C9486000C9486000C9486000C948600E4
S11300800C9486000C9486000C9486000C948600D4
S11300900C9486000C9486000C9486000C948600C4
S11300A00C9486000C9486000C9486000C948600B4
S11300B00C9486000C9486000C9486000C948600A4
S11300C00C9486000C9486000C9486000C94860094
S11300D00C9486000C9486000C9486000C94860084
S11300E00C9486000C94860011241FBECFEFCDBF64
S11300F0DFE7DEBF20E4A0E0B0E401C01D92A4303D
S1130100B207E1F70E948B000C944A010C940000A2
S11301100E942F0108950E94880080E090E018C09A
S1130120AC01092E000C660B770B409300405093F2
S11301300140609302407093034080936C0A909353
S11301406D0AE9EFF0E03197F1F700C00000019685
S11301502091660A3091670A8217930708F3809109
S1130160660A9091670A019718C0AC01092E000C29
S1130170660B770B4093004050930140609302401C
S11301807093034080936C0A90936D0AE9EFF0E05A
S11301903197F1F700C000000197992334F7BDCFE0
S11301A01092890080E0089580E0089580E0089529
S11301B080E008C0E82FF0E0E05FFB4F908198609A
S11301C090838F5F8830B0F380E008C0E82FF0E0C0
S11301D0E05DFB4F9081986090838F5F8830B0F32F
S11301E080E008C0E82FF0E0E05BFB4F908198606E
S11301F090838F5F8830B0F380E008C0E82FF0E090
S1130200E059FB4F9081986090838F5F8830B0F302
S113021080E008C0E82FF0E0E057FB4F9081986041
S113022090838F5F8830B0F380E008C0E82FF0E05F
S1130230E055FB4F9081986090838F5F8830B0F3D6
S1130240089589B18F7B89B988B1806488B9E0EE5B
S1130250F5E08681886086830E943E0108950E94AD
S1130260D8000E94D4000E943C010E94D6000E9443
S113027021010E94D000089580E00895E0E4FAE0AE
S113028083E481838FEF9FE086A397A381E080833B
S10B029080E00895F894FFCF0B
S9030000FC
